:100000000C9462000C948A000C948A000C948A0070
:100010000C948A000C948A000C948A000C948A0038
:100020000C948A000C948A000C948A000C948A0028
:100030000C948A000C948A000C948A000C948A0018
:100040000C9483060C948A000C948A000C948A0009
:100050000C948A000C948A000C948A000C948A00F8
:100060000C948A000C948A000000000024002700F1
:100070002A0000000000250028002B0000000000DE
:1000800023002600290004040404040404040202DA
:100090000202020203030303030301020408102007
:1000A0004080010204081020010204081020000012
:1000B0000008000201000003040700000000000027
:1000C00000009D0811241FBECFEFD8E0DEBFCDBFDA
:1000D00011E0A0E0B1E0E0E2F9E102C005900D928C
:1000E000A035B107D9F721E0A0E5B1E001C01D922C
:1000F000A63CB207E1F710E0C2E6D0E004C02197C9
:10010000FE010E94630BC136D107C9F70E94120796
:100110000C948E0C0C940000AF92BF92CF92DF92A1
:10012000EF92FF920F931F93CF93DF936C017B01AC
:100130008B01040F151FEB015E01AE18BF08C0173D
:10014000D10759F06991D601ED91FC910190F081B0
:10015000E02DC6010995892B79F7C501DF91CF9173
:100160001F910F91FF90EF90DF90CF90BF90AF90D5
:100170000895833081F028F4813099F08230A9F01D
:1001800008958730A9F08830C9F08430B1F48091A7
:1001900080008F7D03C0809180008F7780938000E6
:1001A000089584B58F7784BD089584B58F7DFBCF86
:1001B0008091B0008F778093B00008958091B00057
:1001C0008F7DF9CFCF93DF93282F30E0F901E255EF
:1001D000FF4F8491F901E656FF4FD491F901EA5798
:1001E000FF4FC491CC23A1F081110E94B900EC2FE4
:1001F000F0E0EE0FFF1FE458FF4FA591B491EC9192
:10020000ED2381E090E009F480E0DF91CF91089543
:1002100080E090E0FACF1F93CF93DF93282F30E058
:10022000F901E255FF4F8491F901E656FF4FD49151
:10023000F901EA57FF4FC491CC23A9F0162F811181
:100240000E94B900EC2FF0E0EE0FFF1FEE58FF4FB9
:10025000A591B4918FB7F894EC91111108C0D09585
:10026000DE23DC938FBFDF91CF911F910895DE2BAA
:10027000F8CFCF93DF9390E0FC01E656FF4F249137
:100280008A579F4FFC0184918823C9F090E0880F22
:10029000991FFC01E859FF4FA591B491FC01EE585C
:1002A000FF4FC591D49161110DC09FB7F8948C9107
:1002B000209582238C938881282328839FBFDF91F8
:1002C000CF910895623051F49FB7F8943C91822FFA
:1002D000809583238C93E8812E2BEFCF8FB7F894F2
:1002E000EC912E2B2C938FBFEACF3FB7F8948091DF
:1002F000810190918201A0918301B091840126B582
:10030000A89B05C02F3F19F00196A11DB11D3FBF4D
:10031000BA2FA92F982F8827BC01CD01620F711D1C
:10032000811D911D42E0660F771F881F991F4A9516
:10033000D1F708958F929F92AF92BF92CF92DF92A2
:10034000EF92FF926B017C010E9475014B015C01F1
:10035000C114D104E104F104B9F00E9475016819D7
:1003600079098A099B09683E73408105910580F3EC
:1003700021E0C21AD108E108F10888EE880E83E076
:10038000981EA11CB11CE4CFFF90EF90DF90CF909E
:10039000BF90AF909F908F9008952FB7F894609181
:1003A0007D0170917E0180917F01909180012FBF2E
:1003B00008950895089590E080E00895FC0101906B
:1003C0000020E9F73197AF01481B590BBC018AEABD
:1003D00091E00C948C008F929F92AF92BF920F93FA
:1003E0001F93CF93DF93CDB7DEB7A1970FB6F894E5
:1003F000DEBF0FBECDBF19A2423008F44AE08E0125
:100400000F5D1F4F842E912CB12CA12CA5019401BE
:100410000E94220BE62FB901CA01EA30F4F4E05D34
:10042000D801EE938D01232B242B252B79F790E017
:1004300080E0109719F0CD010E94DE01A1960FB661
:10044000F894DEBF0FBECDBFDF91CF911F910F910A
:10045000BF90AF909F908F900895E95CE1CFFF929D
:100460000F931F93CF93DF93F82E062FC7E0D0E0B2
:1004700010E061E0802F0E940B018F2D0E94E200AE
:100480000C2E01C0880F0A94EAF7182B60E0802F29
:100490000E940B01219768F7812FDF91CF911F9167
:1004A0000F91FF900895EF92FF920F931F93CF93B8
:1004B000DF938091A0010E94E200892B31F060E07F
:1004C00070E0CB010E949A01F4CFDFB7F8946091FD
:1004D0009F018091A0010E942F02082F60919F012F
:1004E0008091A0010E942F02C82F60919F018091EE
:1004F000A0010E942F02182FF12CE12C8091A10164
:100500008E151F0479F070F061E080919F010E94C8
:100510000B0160E080919F010E940B018FEFE81AB0
:10052000F80AECCFDFBF6C2F70E090E080E0982FEE
:10053000872F762F6627802B612B000F000B10E092
:1005400030E020E0302F222711270027602B712B6D
:10055000822B932BDF91CF911F910F91FF90EF9002
:100560000895CF93DF93EC0160E08E810E940B0130
:1005700061E08E810E940B0160E08E810E940B0180
:100580008BE891E00197F1F7DF91CF910895CF9239
:10059000DF92EF92FF920F931F93CF93DF936C0143
:1005A0007C0187E0E80EF11CD0E0C0E0062F10E0EF
:1005B000B8010C2E02C0759567950A94E2F7617038
:1005C000F70181917F010E940B012196C430D10572
:1005D00079F7C601DF91CF911F910F91FF90EF90B6
:1005E000DF90CF900C94B102CF92DF92EF92FF9206
:1005F0000F931F93CF93DF93EC01F62E642F8C8122
:100600000E940B018D818F3F19F060E00E940B0169
:100610000F2D10E08F8584FF25C06E0187E0C80E86
:10062000D11CF12CE12CB8010E2C02C075956795F8
:100630000A94E2F76170F60181916F010E940B014B
:10064000FFEFEF1AFF0A88E0E816F10461F7CE0128
:10065000DF91CF911F910F91FF90EF90DF90CF909E
:100660000C94B102B80184E0759567958A95E1F71D
:10067000CE010E94C7026F2DCE01DF91CF911F9155
:100680000F91FF90EF90DF90CF900C94C70240E065
:10069000682F8AEA91E00C94F40281E00E944703FB
:1006A0008BE39FE10197F1F708959091BD016917E0
:1006B00010F06FEF690FE62FF0E0E655FE4F9489DA
:1006C000890F80680C944703CF93DF93823029F41D
:1006D0009091B90198609093B9018093BD011092F7
:1006E000BE0180E48093BF0180E18093C00180E57A
:1006F0008093C10161E08091AE010E943901809137
:10070000AF018F3F19F061E00E94390161E08091F3
:10071000B0010E943901CAEAD1E09E012A5A314053
:100720008091B90184FD0BC084E090E021962817E8
:10073000390744F461E08E810E943901EECF88E0F0
:1007400090E0F4CF8BE39DE00197F1F760E08091BA
:10075000AE010E940B0160E08091B0010E940B018C
:100760008091AF018F3F19F060E00E940B018091F2
:10077000B90184FD34C063E08AEA91E00E94C702B7
:10078000CBE4D6E4CE010197F1F763E08AEA91E089
:100790000E94C7022197F1F763E08AEA91E00E9484
:1007A000C70283E592E00197F1F762E08AEA91E0FF
:1007B0000E94C7028091B90180620E94470384E0D1
:1007C0008093BA018CE00E9447030E944D0382E0AF
:1007D0008093BB0186E0DF91CF910C944703806248
:1007E0000E9447038BE496E40197F1F78091B901E9
:1007F00080620E94470383E592E00197F1F78091C0
:10080000B90180620E944703D5CF41E00E94F40203
:1008100081E090E008954F925F926F927F928F9265
:100820009F92AF92BF92CF92DF92EF92FF920F937F
:100830001F93CF936B017C01742EAC019B010E942E
:100840001D0B882399F08BE191E0CF911F910F91BF
:10085000FF90EF90DF90CF90BF90AF909F908F90E0
:100860007F906F905F904F900C94DE01460157018E
:10087000E894B7F82FEF3FEF4FE75FE7C501B4010A
:100880000E941D0B81110DC02FEF3FEF4FE75FE777
:10089000C501B4010E944C0918161CF48FE191E0C7
:1008A000D4CF2FEF3FEF4FE75FE4C701B6010E94BF
:1008B000AB0A18161CF483E291E0C7CF2FEF3FEF8D
:1008C0004FE75FECC701B6010E944C0987FDF3CFEB
:1008D00020E030E0A901C701B6010E944C0910E0F8
:1008E00000E087FF0CC041E06DE28AEA91E00E94DF
:1008F000F402F7FAF094F7F8F09401E010E0C0E0A9
:1009000060E070E080E09FE37C1641F020E030E0A2
:1009100040E251E40E945109CF5FF6CFA701960152
:100920000E94E0084B015C010E94CA092B013C01B6
:100930004AE00E94EB01080F191FCC23C9F1C30143
:10094000B2010E94F9099B01AC01C501B4010E94EA
:10095000DF084B015C0141E06EE28AEA91E00E940F
:10096000F4020F5F1F4FC15018F120E030E040E269
:1009700051E4C501B4010E94B00A2B013C010E9460
:10098000CA094B01B12CA12C4AE0C501B4010E9457
:10099000EB01080F191FC501B4010E94F9099B0161
:1009A000AC01C301B2010E94DF084B015C01DBCF47
:1009B000C801CF911F910F91FF90EF90DF90CF90E2
:1009C000BF90AF909F908F907F906F905F904F906F
:1009D00008950C94050C8F929F92AF92BF92EF9264
:1009E000FF920F931F93CF93DF93CAE0812C912C3A
:1009F00054010E945302860E971EA81EB91E60E085
:100A000070E0CB010E949A01C15099F7C501B40171
:100A10002AE030E040E050E00E94440B8091A201C7
:100A20009091A301A091A401B091A50179018A013F
:100A3000E81AF90A0A0B1B0BC801B7010E94FB094F
:100A40002091A6013091A7014091A8015091A901E0
:100A50000E94510960938D0170938E0180938F01E4
:100A60009093900128E7E22E21E0F22E84E591E0B8
:100A7000E7017A916A915A914A914C835D836E8322
:100A80007F838C179D0709F093C060E0809150012F
:100A90000E940B0183E090E00197F1F761E0809103
:100AA00050010E940B0183E290E00197F1F760E0B2
:100AB000809150010E940B0180915201909153014D
:100AC0009927FC01E656FF4F6491FC01EA57FF4F5E
:100AD000E491F0E0EE0FFF1FE458FF4F85919491F1
:100AE00000E412E42FE030E0462F0E94CD066115AD
:100AF00071058105910529F06F5F7F4F8F4F9F4FE3
:100B00009F700E94F90920E030E040E05FE30E941E
:100B1000B00A2AE23EE74CE05DE30E94B00A4B01D6
:100B20005C0120E030E0A9010E944C09882351F0CB
:100B300020E030E048EC53E4C501B4010E94AB0A68
:100B4000181634F4812C912C80E8A82E8FEBB82E47
:100B50008092540190925501A0925601B092570193
:100B600004E2E00EF11C60E070E0CB0129913991C4
:100B7000499159910E94E008CE15DF05B9F720E0B0
:100B800030E040E251E40E9451096093910170937A
:100B900092018093930190939401DF91CF911F91E3
:100BA0000F91FF90EF90BF90AF909F908F9008951E
:100BB0007E015ECF8F929F92AF92BF92CF92DF92D3
:100BC000EF92FF92CF930E94CD016B017C010E94B6
:100BD0004D030E94CD016C197D098E099F09693C66
:100BE000710581059105A8F30E94CD016B017C017F
:100BF0000E94EB048090910190909201A09093014B
:100C0000B090940160E080E00E94550387E291E09B
:100C10000E94DE01A5019401609185017091860119
:100C200080918701909188010E94DF082BE734E9C9
:100C30004CEA52E40E94B00A42E00E940B04809009
:100C40008D0190908E01A0908F01B090900161E095
:100C500080E00E94550342E0C501B4010E940B04EC
:100C600085E00E94E200C1E0892B51F481E080938D
:100C7000000168EC70E080E090E00E949A01C0E022
:100C800084E00E94E200892B91F58091910190917E
:100C90009201A0919301B09194018093950190935A
:100CA0009601A0939701B093980180918D01909146
:100CB0008E01A0918F01B091900180938901909352
:100CC0008A01A0938B01B0938C0181E08093000195
:100CD00068EC70E080E090E0CF91FF90EF90DF90C3
:100CE000CF90BF90AF909F908F900C949A01C111BC
:100CF00070CFCF91FF90EF90DF90CF90BF90AF90EB
:100D00009F908F9008951F920F920FB60F9211240B
:100D10002F933F938F939F93AF93BF9380917D01C8
:100D200090917E01A0917F01B091800130917C0172
:100D300023E0230F2D3758F50196A11DB11D2093F7
:100D40007C0180937D0190937E01A0937F01B093FD
:100D500080018091810190918201A0918301B091E5
:100D600084010196A11DB11D8093810190938201A0
:100D7000A0938301B0938401BF91AF919F918F9114
:100D80003F912F910F900FBE0F901F90189526E85E
:100D9000230F0296A11DB11DD2CFCF92DF92EF9209
:100DA000FF920F931F93E82FF92F05C001501109EF
:100DB0002109310961F1908196239417B9F305C097
:100DC000015011092109310911F1908196239413E1
:100DD000F7CFC12CD12CE12CF12C0AC08FEFC81A0F
:100DE000D80AE80AF80A0C151D052E053F0579F00A
:100DF00080818623841791F36C2D7D2D8E2D9F2D60
:100E00001F910F91FF90EF90DF90CF90089560E0D9
:100E100070E080E090E01F910F91FF90EF90DF90E5
:100E2000CF900895789484B5826084BD84B5816044
:100E300084BD85B5826085BD85B5816085BD8091A5
:100E40006E00816080936E0010928100809181001D
:100E50008260809381008091810081608093810015
:100E6000809180008160809380008091B1008460D7
:100E70008093B1008091B00081608093B000809138
:100E80007A00846080937A0080917A0082608093F7
:100E90007A0080917A00816080937A0080917A0054
:100EA000806880937A001092C10062E085E00E9421
:100EB000390162E084E00E94390182E080939F0161
:100EC00083E08093A00161E082E00E94390162E04A
:100ED0008091A0010E94390181E08093A1018BE7FC
:100EE00094E7AFEEB3E48093A6019093A701A0939B
:100EF000A801B093A901CAE0C12CD12C76010E94AF
:100F00005302C60ED71EE81EF91E60E070E0CB014A
:100F10000E949A01C15099F7C701B6012AE030E05A
:100F200040E050E00E94440BCA01B9010E94FB0955
:100F30000E94C3096093A2017093A3018093A4014E
:100F40009093A50182E00E94640360E080E00E942B
:100F500055038BE291E00E94DE0160E273E080E0E5
:100F600090E00E949A010E94CD01609399017093D4
:100F70009A0180939B0190939C010E94CD016B018B
:100F80007C0160E080E00E94550386E391E00E94CE
:100F9000DE010E94CD016C197D098E099F09693C13
:100FA000710581059105A8F30E94EB0480909101E1
:100FB00090909201A0909301B0909401809285014D
:100FC00090928601A0928701B09288010E94CD0183
:100FD0006B017C0161E080E00E94550342E0C501A5
:100FE000B4010E940B0484E00E94E200892B89F680
:100FF00068EC70E080E090E00E949A010E94DA05BF
:1010000000E010E00E94CD01C0909901D0909A01BB
:10101000E0909B01F0909C016C197D098E099F095D
:10102000603A710581059105F0F00E94CD01609351
:10103000990170939A0180939B0190939C0185E0A4
:101040000E94E200892B49F4C09100010E944D03E7
:101050001C167CF0CF5FC0930001809100018823B3
:1010600059F0813061F00115110561F20E94000014
:10107000C9CF10920001F1CF0E94DA05F4CF0E948F
:10108000EB0460E088E00E94550386E491E00E9452
:10109000DE01209191013091920140919301509194
:1010A00094016091950170919601809197019091C2
:1010B00098010E94DF082BE734E94CEA52E40E94D1
:1010C000B00A4B015C0142E00E940B0460E080E04A
:1010D0000E9455032091890130918A0140918B0132
:1010E00050918C0160918D0170918E0180918F01E2
:1010F000909190010E94DF086B017C0189E491E0EE
:101100000E94DE0142E0C701B6010E940B04A50166
:101110009401C701B6010E9451096B017C0161E095
:1011200080E00E9455038CE491E00E94DE0142E0E1
:10113000C701B6010E940B0496CFEAEAF1E01382E0
:10114000128283E191E0918380838CE084838FEF2E
:1011500085838DE0868388E0878389E080878AE0C5
:1011600081878BE0828713861486158616861786FC
:1011700081E00E946403EDE9F1E08BE091E091836E
:101180008083158216821782108680E090E0A0E8A6
:10119000BFE381879287A387B487E0E5F1E087E02A
:1011A00090E09183808386E090E09383828361E086
:1011B00087E00E94390160E086E00C9439015058C4
:1011C000BB27AA270E94F7080C94710A0E94630AA1
:1011D00038F00E946A0A20F039F49F3F19F426F48F
:1011E0000C94600A0EF4E095E7FB0C945A0AE92F80
:1011F0000E94820A58F3BA1762077307840795079B
:1012000020F079F4A6F50C94A40A0EF4E0950B2EC8
:10121000BA2FA02D0B01B90190010C01CA01A00148
:101220001124FF27591B99F0593F50F4503E68F1A3
:101230001A16F040A22F232F342F4427585FF3CFE4
:10124000469537952795A795F0405395C9F77EF4B5
:101250001F16BA0B620B730B840BBAF09150A1F0FE
:10126000FF0FBB1F661F771F881FC2F70EC0BA0F84
:10127000621F731F841F48F4879577956795B7950C
:10128000F7959E3F08F0B0CF9395880F08F0992707
:10129000EE0F9795879508950E94360A08F481E02D
:1012A00008950E9465090C94710A0E946A0A58F018
:1012B0000E94630A40F029F45F3F29F00C945A0A17
:1012C00051110C94A50A0C94600A0E94820A68F3DA
:1012D0009923B1F3552391F3951B550BBB27AA27EF
:1012E00062177307840738F09F5F5F4F220F331F29
:1012F000441FAA1FA9F335D00E2E3AF0E0E832D0F1
:1013000091505040E695001CCAF72BD0FE2F29D0F3
:10131000660F771F881FBB1F261737074807AB07C5
:10132000B0E809F0BB0B802DBF01FF2793585F4F3A
:101330003AF09E3F510578F00C945A0A0C94A50A95
:101340005F3FE4F3983ED4F3869577956795B7951C
:10135000F7959F5FC9F7880F911D9695879597F927
:101360000895E1E0660F771F881FBB1F62177307A0
:101370008407BA0720F0621B730B840BBA0BEE1FB5
:1013800088F7E09508950E94CA096894B1110C94F9
:10139000A50A08950E948A0A88F09F5798F0B92FED
:1013A0009927B751B0F0E1F0660F771F881F991F9A
:1013B0001AF0BA95C9F714C0B13091F00E94A40A8E
:1013C000B1E008950C94A40A672F782F8827B85F9E
:1013D00039F0B93FCCF3869577956795B395D9F7F2
:1013E0003EF490958095709561957F4F8F4F9F4FFC
:1013F0000895E89409C097FB3EF490958095709508
:1014000061957F4F8F4F9F4F9923A9F0F92F96E950
:10141000BB279395F695879577956795B795F111C5
:10142000F8CFFAF4BB0F11F460FF1BC06F5F7F4F62
:101430008F4F9F4F16C0882311F096E911C0772374
:1014400021F09EE8872F762F05C0662371F096E87D
:10145000862F70E060E02AF09A95660F771F881F4C
:10146000DAF7880F9695879597F90895990F0008F0
:10147000550FAA0BE0E8FEEF16161706E807F90766
:10148000C0F012161306E407F50798F0621B730B01
:10149000840B950B39F40A2661F0232B242B252B82
:1014A00021F408950A2609F4A140A6958FEF811D25
:1014B000811D089597F99F6780E870E060E00895C6
:1014C0009FEF80EC089500240A941616170618065C
:1014D0000906089500240A94121613061406050638
:1014E0000895092E0394000C11F4882352F0BB0FC9
:1014F00040F4BF2B11F460FF04C06F5F7F4F8F4F2C
:101500009F4F089557FD9058440F551F59F05F3F66
:1015100071F04795880F97FB991F61F09F3F79F015
:1015200087950895121613061406551FF2CF469597
:10153000F1DF08C0161617061806991FF1CF869519
:101540007105610508940895E894BB2766277727FD
:10155000CB0197F908950E94360A08F48FEF089599
:101560000E94C30A0C94710A0E94630A38F00E9418
:101570006A0A20F0952311F00C945A0A0C94600A20
:1015800011240C94A50A0E94820A70F3959FC1F35E
:10159000950F50E0551F629FF001729FBB27F00D21
:1015A000B11D639FAA27F00DB11DAA1F649F662776
:1015B000B00DA11D661F829F2227B00DA11D621FC5
:1015C000739FB00DA11D621F839FA00D611D221F7F
:1015D000749F3327A00D611D231F849F600D211D63
:1015E000822F762F6A2F11249F5750409AF0F1F0E6
:1015F00088234AF0EE0FFF1FBB1F661F771F881F4F
:1016000091505040A9F79E3F510580F00C945A0A22
:101610000C94A50A5F3FE4F3983ED4F38695779542
:101620006795B795F795E7959F5FC1F7FE2B880FF4
:10163000911D9695879597F908950E94360A880B13
:10164000990B0895A1E21A2EAA1BBB1BFD010DC028
:10165000AA1FBB1FEE1FFF1FA217B307E407F50762
:1016600020F0A21BB30BE40BF50B661F771F881F3E
:10167000991F1A9469F760957095809590959B01D4
:10168000AC01BD01CF010895052E97FB1EF4009417
:101690000E945B0B57FD07D00E94220B07FC03D072
:1016A0004EF40C945B0B50954095309521953F4F2F
:1016B0004F4F5F4F089590958095709561957F4F3E
:1016C0008F4F9F4F0895EE0FFF1F0590F491E02D6F
:1016D00009940F931F93CF93DF938230910510F4F9
:1016E00082E090E0E091C401F091C50130E020E09B
:1016F000B0E0A0E0309799F42115310509F44AC013
:10170000281B390B24303105D8F58A819B8161155E
:10171000710589F1FB0193838283FE0111C0408131
:1017200051810281138148175907E0F04817590782
:1017300099F4109761F012960C93129713961C93DC
:101740003296CF01DF91CF911F910F9108950093B1
:10175000C4011093C501F4CF2115310551F0421792
:10176000530738F0A901DB019A01BD01DF01F8013F
:10177000C1CFEF01F9CF9093C5018093C401CDCFC4
:10178000FE01E20FF31F81939193225031093983B7
:101790002883D7CF2091C2013091C301232B41F47C
:1017A00020910301309104013093C3012093C201C1
:1017B00020910101309102012115310541F42DB72D
:1017C0003EB74091050150910601241B350BE09175
:1017D000C201F091C301E217F307A0F42E1B3F0BE7
:1017E0002817390778F0AC014E5F5F4F2417350793
:1017F00048F04E0F5F1F5093C3014093C201819385
:1018000091939FCFF0E0E0E09CCFCF93DF930097E0
:10181000E9F0FC01329713821282A091C401B091C9
:10182000C501ED0130E020E01097A1F42081318165
:10183000820F931F2091C2013091C30128173907ED
:1018400009F061C0F093C301E093C201DF91CF9131
:101850000895EA01CE17DF07E8F54A815B819E0112
:1018600041155105B1F7E901FB83EA83499159918B
:10187000C40FD51FEC17FD0761F48081918102969A
:10188000840F951FE90199838883828193819B83CB
:101890008A83F0E0E0E012968D919C911397009777
:1018A000B9F52D913C911197CD010296820F931FAE
:1018B0002091C2013091C3012817390739F63097BA
:1018C00051F51092C5011092C401B093C301A093C9
:1018D000C201BCCFD383C28340815181840F951F45
:1018E000C817D90761F44E5F5F4F88819981480F0F
:1018F000591F518340838A819B8193838283211561
:10190000310509F0B0CFF093C501E093C4019ECF3B
:10191000FD01DC01C0CF13821282D7CFF894FFCF34
:10192000010000C601800000000000D901E90400A8
:1019300000000005048C00DB01DA016E616E0069B5
:101940006E66006F766600563A200044454E534955
:101950004D4554524F0044697374616E6369612050
:10196000706F74653A00563A00673A00443A2000B6
:00000001FF
